:020000040040BA
:10000000F02440201D084000190840001908400055
:1000100019084000190840001908400000000000BD
:10002000000000000000000000000000190840006F
:10003000190840000000000019084000190840009D
:10004000190840001908400019084000D50A40006E
:10005000190840001908400019084000190840001C
:100060001908400000000000B5024000C90240002D
:10007000DD0240001908400019084000190840003E
:10008000F102400005034000190840001908400033
:1000900019084000190840001908400019084000DC
:1000A00019084000190840001908400019084000CC
:1000B00019084000190840001908400019084000BC
:1000C00019084000190840001908400019084000AC
:1000D000000000001908400000000000190840005E
:1000E000190840001908400019084000190840008C
:1000F000190840001908400019084000190840007C
:10010000190840001908400019084000190840006B
:10011000190840000000000000000000000000007E
:10012000190840001908400019084000190840004B
:10013000190840000000000019084000190840009C
:1001400010B5054C237833B9044B13B10448AFF311
:1001500000800123237010BD340440200000000003
:100160004C0D40000C4B43B10C480D4910B5AFF39A
:1001700000800C48036823B910BD0A48036833B9EE
:100180007047094B002BF7D0BDE810401847064BCD
:10019000002BF5D0184700BF000000004C0D4000B8
:1001A000380440204C0D40000000000010B51048FD
:1001B000104B98473E2100200F4B98470F4CA0470B
:1001C0000028FCD00E4B98470E4A0F4B9A620F4CFA
:1001D000A0470028FCD04FF480600D4B984760206A
:1001E0000C4B98470C4B98470C48024B984710BD56
:1001F00000A3E111F1094000B503400009044000EB
:1002000019044000013F182000060E402904400058
:100210001903400051034000E50840008C86470068
:10022000016370474163704710B4019C41644CB94D
:1002300001664BB101654AB94163016101605DF836
:10024000044B70474166F4E74165F4E70163F4E766
:10025000836B0B4214BF012000207047C06C7047B5
:10026000806C70472DE9F041044688460E4B984754
:10027000054620460D4B9847054013D00C4C04F121
:10028000600603E0B4420DD010345DB120684045F3
:10029000F8D161682942F5D0E3689847636825EA98
:1002A0000305EFE7BDE8F0815D0240006102400018
:1002B0005004402008B50A210148024B984708BD68
:1002C000000E0E406502400008B50B210148024BAC
:1002D000984708BD00100E406502400008B50C218B
:1002E0000148024B984708BD00120E4065024000CD
:1002F00008B510210148024B984708BD00140E4074
:100300006502400008B511210148024B984708BD1D
:1003100000160E4065024000032811D0042812D0B8
:1003200002280CBF4FF480710021084A136B23F49C
:1003300040730B431363936E13F0080FFBD07047A9
:100340004FF44071F1E74FF40071EEE700060E4004
:10035000174A136B23F0700318431063936E13F066
:10036000080F0AD14FF4805311498A6E12F0080F1A
:1003700003D1013BF9D1012070470D4A136B23F0E3
:10038000030343F002031363936E13F0080F0AD1C3
:100390004FF4805306498A6E12F0080F05D1013BD5
:1003A000F9D101207047002070470020704700BF3E
:1003B00000060E40A0B90E48036A090289B20D4A30
:1003C0001A400D4B1343194301620246936E13F01A
:1003D000010FFBD0064A116A084B0B4313627047AA
:1003E00003490B6A064A1A40064B13430B627047D7
:1003F00000060E40FCFFC8FF010037000000370177
:10040000FCFFC8FE02003701024B986E00F48030FA
:10041000704700BF00060E404FF00052014B9A6239
:10042000704700BF00060E40024B986E00F00200BD
:10043000704700BF00060E403F281ED81F280CD86A
:10044000114B9A6901238340934318D0012303FA87
:1004500000F00D4B18610020704720380A4BD3F88C
:1004600008210123834093430BD0012303FA00F0BA
:10047000054BC3F8000100207047012070470020A1
:1004800070470020704700BF00060E40034B1A6FF4
:10049000C0F3120010431867704700BF00060E40FB
:1004A00070470000104A136F23F4C00343F4800325
:1004B0001367116A0D4B0B431362936E13F0080F11
:1004C000FBD04FF4FA7300BF013BFCD1064A136A1C
:1004D00013F0080FFBD0044A136F23F4C00343F456
:1004E00080031367704700BF00060E40040037000A
:1004F0002DE9F843431E042B00F20781DFE813F0D7
:100500000500050015001500F600814A136923F067
:100510000403136101227F4B1A70BFF35F8F62B631
:10052000BFF34F8F30BFBDE8F883044603280CBFEC
:1005300000204FF40010784B984772B6BFF35F8FDE
:100540000022744B1A700122744B1A70744B1F6A8C
:100550001D6B744AD2F800809E6A734A3A431A624D
:1005600005F00309B9F1010F40F2898025F003017C
:1005700041F0010119631A46936E13F0080FFBD086
:1005800011F0700F08D021F07001654B19631A4605
:10059000936E13F0080FFBD0644B9847604A936E3C
:1005A00013F4003FFBD05E4A116A614B0B4043F4E9
:1005B0005C131362936E13F4803FFBD028F47063D6
:1005C000584A1360042C5CD0524C01232370BFF3B3
:1005D0005F8F62B6574B984772B6BFF35F8F0023A9
:1005E000237017F0020F55D04D4A136A5249194033
:1005F000524B0B431362116A514B0B4043F45C1393
:100600001362504B3340002B6ED046F00056444BE3
:100610009E620221B9F1020F04D1414A936E13F098
:10062000020FFBD03E4A136B23F0700305F07000FD
:1006300003431363936E13F0080FFBD0394BC3F8D9
:100640000080A3F5C0631D631A46936E13F0080F74
:10065000FBD0334A936E0B42FCD000222F4B1A7012
:10066000394B1B681BB198470022374B1A60012297
:10067000284B1A70BFF35F8F62B6BDE8F883294636
:100680007EE7A2F5C062116A304B0B4043F45C1365
:10069000136299E717F0010FB3D0214B1B6A13F0D7
:1006A000010F0BD11E490B6A294A1A40294B1343EB
:1006B0000B620A46936E13F0010FFBD0184B1B6AB6
:1006C00013F0807F08D1164A116A234B0B43136243
:1006D000936E13F4803FFBD0114A116A184B0B4004
:1006E00043F45C1313628CE7002193E7084A136913
:1006F00043F004031361194A194B1A600122054B98
:100700001A70BFF35F8F62B630BFBDE8F88300BFD9
:1007100000ED00E000004020A1044000C0044020A3
:1007200000060E40000C0E4008003700190440007F
:10073000FFFFC8FEA5044000FCFFC8FE0200370111
:1007400087FFC8FF0000FF07C4044020FEFFC8FF6A
:10075000FCFFC8FF0100370000003701040000A5BE
:1007600010180E40034B1B6843F4802319430160AB
:1007700000207047C8044020044A136823F4801303
:100780001360026813430360704700BFC804402031
:100790000268034B1B68194311430160704700BF97
:1007A000C8044020036823EA0101024B1B68194377
:1007B00001607047C8044020826883689A4203D071
:1007C000826883689342FBD118467047C0687047BF
:1007D00070B506460D46046804F480344FF4803149
:1007E00009480A4B98472DB94FF0FF33736024B97D
:1007F000002070BD013D7560F9E74FF4803102487B
:10080000034B9847F4E700BF30180E40A50740009F
:1008100091074000C1607047FEE7000000B583B05B
:10082000254B264A9A4210D0254B234A9A420CD295
:10083000013B9B1A23F00303043313441F4951F86F
:10084000040B42F8040B9A42F9D11E4B1E4A9A42FD
:100850000AD2013B9B1A23F0030304331344002103
:1008600042F8041B9342FBD1184A194B23F07F0333
:100870009360EFF31083B3FA83F35B09019372B6CD
:10088000BFF35F8F0022134B1A700199124A13684D
:1008900043F470031360BFF34F8FBFF36F8F29B121
:1008A00001220C4B1A70BFF35F8F62B60B4B984757
:1008B0000B4B9847FEE700BF000040204C0D400066
:1008C00034044020F00440203404402000ED00E0D7
:1008D000000040000000402088ED00E0B50B400023
:1008E000110B40003B4B1B6B03F00303012B1DD08E
:1008F00083B1022B36D0374B1B6B03F07003702B88
:100900005FD0344B1A6B3449C2F302120B68D340E8
:100910000B607047314B5B6913F0800F14BF4FF4CD
:1009200000424FF4FA422C4B1A60E4E7294B1B6A51
:1009300013F0807F03D02A4A274B1A60DBE7294A4D
:10094000254B1A60234B1B6A03F07003102B05D054
:10095000202BD0D1224A204B1A60CCE7224A1E4BD2
:100960001A60C8E71B4B1B6A13F0807F16D01C4A25
:10097000194B1A60174B1B6B03F00303022BBAD100
:10098000144A916A926A1448C1F30A41036801FB50
:100990000333D2B2B3FBF2F30360ACE7114A0E4B60
:1009A0001A600C4B1B6A03F07003102B05D0202B30
:1009B000E0D10B4A084B1A60DCE70B4A064B1A6081
:1009C000D8E7054A13680949A1FB03135B081360C4
:1009D000704700BF00060E400400402010180E4073
:1009E000001BB70000093D0000127A00ABAAAAAABA
:1009F000164B984213D9164B984215D9154B98426D
:100A000016D9154B984217D9144B984218D9144B44
:100A1000984294BF134A144A144B1A6070474FF01F
:100A20008062124B1A607047114A104B1A6070476F
:100A3000104A0E4B1A6070470F4A0C4B1A607047F1
:100A40004FF00422094B1A60704700BFBFF35E01EC
:100A50007FE7BD023FDB1C04FFCE7B05BFC2DA0689
:100A60007FB639080005000400060004000C0E40A3
:100A700000010004000200040003000438B504462D
:100A80000D46064B984720B929462046044B984707
:100A900038BD29462046034B984738BD51024000D7
:100AA000210240002502400010B582B0044610200B
:100AB000054B98470023009322464FF480110348CA
:100AC000034CA04702B010BD3904400000140E4092
:100AD0002902400010B5084C2046084B9847204694
:100AE000074B9847411C2046064B98474FF480110E
:100AF0000548064B984710BD30180E40CD07400002
:100B0000B9074000D107400000140E407D0A4000A4
:100B100008B5194B98474FF40045184B5D6000200D
:100B2000174B98470320174B9847174C29462046E8
:100B3000164B98474FF440312046154B98470121FA
:100B40002046144B98474FF480312046124B98476B
:100B50000822124B1A602046114B98474FF4803000
:100B6000104B984704211048104B98470525104C0E
:100B70002846A047FCE700BFAD01400050180E40DA
:100B8000A90A40003904400030180E4065074000B3
:100B9000A5074000D10740009107400000E100E0B8
:100BA000790740008D04400010180E4015084000E1
:100BB000F104400070B50F4E0F4D761BB61018BFF4
:100BC000002405D0013455F8043B9847A642F9D1DA
:100BD0000A4E0B4D761B00F0A7F8B61018BF002484
:100BE00006D0013455F8043B9847A642F9D170BDB0
:100BF00070BD00BF340D4000340D40003C0D40007E
:100C0000340D4000024B13B1024800F005B87047A4
:100C100000000000250C4000002301461A4618463B
:100C200000F01EB838B50A4C0A4D641BA4100AD057
:100C300004F18043013B05EB8305013C55F8043981
:100C40009847002CF9D1BDE8384000F077B800BFD4
:100C50004C0D4000480D4000704700BF704700BF7A
:100C60002DE9F8432C4D0646286898460F469146D4
:100C7000FFF7F2FF294B1C68D4F84831002B3ED017
:100C80005A681F2A1CDC02F1010E76B103EB8201C7
:100C90000124C1F88890D3F8880194402043022EA3
:100CA000C3F88801C1F8088123D00232C3F804E0F8
:100CB000286843F82270FFF7D1FF0020BDE8F883D1
:100CC000174B0BB34FF4C870AFF300800346D8B195
:100CD000D4F848210260002141600A46C4F8480166
:100CE0004FF0010EC0F88811C0F88C11002EDCD036
:100CF000CCE7D3F88C110C43C3F88C41D5E704F54D
:100D0000A673C4F84831BBE72868FFF7A7FF4FF088
:100D1000FF30BDE8F88300BF30044020240D4000C0
:100D20000000000008004020F8B500BFF8BC08BC77
:100D30009E467047050C400065014000F8B500BFB5
:0C0D4000F8BC08BC9E4670474101400012
:100D4C000100000000093D0000000000F4024020FA
:100D5C005C034020C40340200000000000000000A1
:100D6C000000000000000000000000000000000077
:100D7C000000000000000000000000000000000067
:100D8C000000000000000000000000000000000057
:100D9C000000000000000000000000000000000047
:100DAC000000000000000000000000000000000037
:100DBC000000000000000000000000000000000027
:100DCC000000000000000000000000000000000017
:100DDC000000000000000000000000000000000007
:100DEC0000000000000000000000000000000000F7
:100DFC0001000000000000000E33CDAB34126DE694
:100E0C00ECDE05000B0000000000000000000000FC
:100E1C0000000000000000000000000000000000C6
:100E2C0000000000000000000000000000000000B6
:100E3C0000000000000000000000000000000000A6
:100E4C000000000000000000000000000000000096
:04117C00CC0440203F
:040000050040081D92
:00000001FF
